{
  "_format": "hh-sol-artifact-1",
  "contractName": "LandRegistry",
  "sourceName": "contracts/LandRegistry.sol",
  "abi": [
    {
      "inputs": [
        {
          "internalType": "address",
          "name": "admin",
          "type": "address"
        }
      ],
      "stateMutability": "nonpayable",
      "type": "constructor"
    },
    {
      "inputs": [],
      "name": "AccessControlBadConfirmation",
      "type": "error"
    },
    {
      "inputs": [
        {
          "internalType": "address",
          "name": "account",
          "type": "address"
        },
        {
          "internalType": "bytes32",
          "name": "neededRole",
          "type": "bytes32"
        }
      ],
      "name": "AccessControlUnauthorizedAccount",
      "type": "error"
    },
    {
      "anonymous": false,
      "inputs": [
        {
          "indexed": true,
          "internalType": "uint256",
          "name": "parcelId",
          "type": "uint256"
        },
        {
          "indexed": true,
          "internalType": "address",
          "name": "holder",
          "type": "address"
        },
        {
          "indexed": false,
          "internalType": "string",
          "name": "note",
          "type": "string"
        }
      ],
      "name": "EncumbranceAdded",
      "type": "event"
    },
    {
      "anonymous": false,
      "inputs": [
        {
          "indexed": true,
          "internalType": "uint256",
          "name": "parcelId",
          "type": "uint256"
        },
        {
          "indexed": true,
          "internalType": "address",
          "name": "holder",
          "type": "address"
        }
      ],
      "name": "EncumbranceResolved",
      "type": "event"
    },
    {
      "anonymous": false,
      "inputs": [
        {
          "indexed": true,
          "internalType": "uint256",
          "name": "parcelId",
          "type": "uint256"
        }
      ],
      "name": "ParcelDeactivated",
      "type": "event"
    },
    {
      "anonymous": false,
      "inputs": [
        {
          "indexed": true,
          "internalType": "uint256",
          "name": "parcelId",
          "type": "uint256"
        },
        {
          "indexed": true,
          "internalType": "address",
          "name": "owner",
          "type": "address"
        },
        {
          "indexed": true,
          "internalType": "address",
          "name": "registrar",
          "type": "address"
        },
        {
          "indexed": false,
          "internalType": "string",
          "name": "metadataCid",
          "type": "string"
        }
      ],
      "name": "ParcelRegistered",
      "type": "event"
    },
    {
      "anonymous": false,
      "inputs": [
        {
          "indexed": true,
          "internalType": "bytes32",
          "name": "role",
          "type": "bytes32"
        },
        {
          "indexed": true,
          "internalType": "bytes32",
          "name": "previousAdminRole",
          "type": "bytes32"
        },
        {
          "indexed": true,
          "internalType": "bytes32",
          "name": "newAdminRole",
          "type": "bytes32"
        }
      ],
      "name": "RoleAdminChanged",
      "type": "event"
    },
    {
      "anonymous": false,
      "inputs": [
        {
          "indexed": true,
          "internalType": "bytes32",
          "name": "role",
          "type": "bytes32"
        },
        {
          "indexed": true,
          "internalType": "address",
          "name": "account",
          "type": "address"
        },
        {
          "indexed": true,
          "internalType": "address",
          "name": "sender",
          "type": "address"
        }
      ],
      "name": "RoleGranted",
      "type": "event"
    },
    {
      "anonymous": false,
      "inputs": [
        {
          "indexed": true,
          "internalType": "bytes32",
          "name": "role",
          "type": "bytes32"
        },
        {
          "indexed": true,
          "internalType": "address",
          "name": "account",
          "type": "address"
        },
        {
          "indexed": true,
          "internalType": "address",
          "name": "sender",
          "type": "address"
        }
      ],
      "name": "RoleRevoked",
      "type": "event"
    },
    {
      "anonymous": false,
      "inputs": [
        {
          "indexed": true,
          "internalType": "uint256",
          "name": "parcelId",
          "type": "uint256"
        },
        {
          "indexed": true,
          "internalType": "address",
          "name": "from",
          "type": "address"
        },
        {
          "indexed": true,
          "internalType": "address",
          "name": "to",
          "type": "address"
        }
      ],
      "name": "TitleTransferred",
      "type": "event"
    },
    {
      "inputs": [],
      "name": "DEFAULT_ADMIN_ROLE",
      "outputs": [
        {
          "internalType": "bytes32",
          "name": "",
          "type": "bytes32"
        }
      ],
      "stateMutability": "view",
      "type": "function"
    },
    {
      "inputs": [],
      "name": "REGISTRAR_ROLE",
      "outputs": [
        {
          "internalType": "bytes32",
          "name": "",
          "type": "bytes32"
        }
      ],
      "stateMutability": "view",
      "type": "function"
    },
    {
      "inputs": [
        {
          "internalType": "uint256",
          "name": "parcelId",
          "type": "uint256"
        },
        {
          "internalType": "address",
          "name": "holder",
          "type": "address"
        },
        {
          "internalType": "string",
          "name": "note",
          "type": "string"
        }
      ],
      "name": "addEncumbrance",
      "outputs": [],
      "stateMutability": "nonpayable",
      "type": "function"
    },
    {
      "inputs": [
        {
          "internalType": "address",
          "name": "account",
          "type": "address"
        }
      ],
      "name": "addRegistrar",
      "outputs": [],
      "stateMutability": "nonpayable",
      "type": "function"
    },
    {
      "inputs": [
        {
          "internalType": "uint256",
          "name": "parcelId",
          "type": "uint256"
        }
      ],
      "name": "deactivateParcel",
      "outputs": [],
      "stateMutability": "nonpayable",
      "type": "function"
    },
    {
      "inputs": [
        {
          "internalType": "uint256",
          "name": "",
          "type": "uint256"
        }
      ],
      "name": "exists",
      "outputs": [
        {
          "internalType": "bool",
          "name": "",
          "type": "bool"
        }
      ],
      "stateMutability": "view",
      "type": "function"
    },
    {
      "inputs": [
        {
          "internalType": "uint256",
          "name": "parcelId",
          "type": "uint256"
        }
      ],
      "name": "getParcel",
      "outputs": [
        {
          "internalType": "address",
          "name": "owner",
          "type": "address"
        },
        {
          "internalType": "address",
          "name": "registrar",
          "type": "address"
        },
        {
          "internalType": "string",
          "name": "metadataCid",
          "type": "string"
        },
        {
          "internalType": "bool",
          "name": "active",
          "type": "bool"
        },
        {
          "internalType": "bool",
          "name": "encActive",
          "type": "bool"
        },
        {
          "internalType": "string",
          "name": "encNote",
          "type": "string"
        },
        {
          "internalType": "address",
          "name": "encHolder",
          "type": "address"
        },
        {
          "internalType": "address[]",
          "name": "ownersHistory",
          "type": "address[]"
        }
      ],
      "stateMutability": "view",
      "type": "function"
    },
    {
      "inputs": [
        {
          "internalType": "bytes32",
          "name": "role",
          "type": "bytes32"
        }
      ],
      "name": "getRoleAdmin",
      "outputs": [
        {
          "internalType": "bytes32",
          "name": "",
          "type": "bytes32"
        }
      ],
      "stateMutability": "view",
      "type": "function"
    },
    {
      "inputs": [
        {
          "internalType": "bytes32",
          "name": "role",
          "type": "bytes32"
        },
        {
          "internalType": "address",
          "name": "account",
          "type": "address"
        }
      ],
      "name": "grantRole",
      "outputs": [],
      "stateMutability": "nonpayable",
      "type": "function"
    },
    {
      "inputs": [
        {
          "internalType": "bytes32",
          "name": "role",
          "type": "bytes32"
        },
        {
          "internalType": "address",
          "name": "account",
          "type": "address"
        }
      ],
      "name": "hasRole",
      "outputs": [
        {
          "internalType": "bool",
          "name": "",
          "type": "bool"
        }
      ],
      "stateMutability": "view",
      "type": "function"
    },
    {
      "inputs": [
        {
          "internalType": "uint256",
          "name": "parcelId",
          "type": "uint256"
        },
        {
          "internalType": "address",
          "name": "owner",
          "type": "address"
        },
        {
          "internalType": "string",
          "name": "metadataCid",
          "type": "string"
        }
      ],
      "name": "registerParcel",
      "outputs": [],
      "stateMutability": "nonpayable",
      "type": "function"
    },
    {
      "inputs": [
        {
          "internalType": "address",
          "name": "account",
          "type": "address"
        }
      ],
      "name": "removeRegistrar",
      "outputs": [],
      "stateMutability": "nonpayable",
      "type": "function"
    },
    {
      "inputs": [
        {
          "internalType": "bytes32",
          "name": "role",
          "type": "bytes32"
        },
        {
          "internalType": "address",
          "name": "callerConfirmation",
          "type": "address"
        }
      ],
      "name": "renounceRole",
      "outputs": [],
      "stateMutability": "nonpayable",
      "type": "function"
    },
    {
      "inputs": [
        {
          "internalType": "uint256",
          "name": "parcelId",
          "type": "uint256"
        }
      ],
      "name": "resolveEncumbrance",
      "outputs": [],
      "stateMutability": "nonpayable",
      "type": "function"
    },
    {
      "inputs": [
        {
          "internalType": "bytes32",
          "name": "role",
          "type": "bytes32"
        },
        {
          "internalType": "address",
          "name": "account",
          "type": "address"
        }
      ],
      "name": "revokeRole",
      "outputs": [],
      "stateMutability": "nonpayable",
      "type": "function"
    },
    {
      "inputs": [
        {
          "internalType": "bytes4",
          "name": "interfaceId",
          "type": "bytes4"
        }
      ],
      "name": "supportsInterface",
      "outputs": [
        {
          "internalType": "bool",
          "name": "",
          "type": "bool"
        }
      ],
      "stateMutability": "view",
      "type": "function"
    },
    {
      "inputs": [
        {
          "internalType": "uint256",
          "name": "parcelId",
          "type": "uint256"
        },
        {
          "internalType": "address",
          "name": "to",
          "type": "address"
        }
      ],
      "name": "transferTitle",
      "outputs": [],
      "stateMutability": "nonpayable",
      "type": "function"
    }
  ],
  "bytecode": "0x60806040523480156200001157600080fd5b506040516200153538038062001535833981016040819052620000349162000125565b6200004160008262000076565b506200006e7fedcc084d3dcd65a1f7f23c65c46722faca6953d28e43150a467cf43e5c3092388262000076565b505062000157565b6000828152602081815260408083206001600160a01b038516845290915281205460ff166200011b576000838152602081815260408083206001600160a01b03861684529091529020805460ff19166001179055620000d23390565b6001600160a01b0316826001600160a01b0316847f2f8788117e7eff1d82e926ec794901d17c78024a50270940304540a733656f0d60405160405180910390a45060016200011f565b5060005b92915050565b6000602082840312156200013857600080fd5b81516001600160a01b03811681146200015057600080fd5b9392505050565b6113ce80620001676000396000f3fe608060405234801561001057600080fd5b506004361061010b5760003560e01c80636b3d5018116100a2578063af92a69311610071578063af92a69314610242578063ba904eed14610255578063d2418e0114610268578063d547741f1461027b578063f68e95531461028e57600080fd5b80636b3d5018146102015780637279b3e91461021457806391d1485414610227578063a217fddf1461023a57600080fd5b806336568abe116100de57806336568abe14610191578063402e093f146101a45780634d0434f2146101b75780634f558e79146101de57600080fd5b806301ffc9a7146101105780631b00c86214610138578063248a9ca31461014d5780632f2ff15d1461017e575b600080fd5b61012361011e366004610eb0565b6102a3565b60405190151581526020015b60405180910390f35b61014b610146366004610efd565b6102da565b005b61017061015b366004610f29565b60009081526020819052604090206001015490565b60405190815260200161012f565b61014b61018c366004610efd565b6104e7565b61014b61019f366004610efd565b610512565b61014b6101b2366004610f29565b61054a565b6101ca6101c5366004610f29565b61069e565b60405161012f989796959493929190610f88565b6101236101ec366004610f29565b60026020526000908152604090205460ff1681565b61014b61020f36600461102e565b6108bf565b61014b61022236600461102e565b610a55565b610123610235366004610efd565b610c17565b610170600081565b61014b6102503660046110b5565b610c40565b61014b6102633660046110b5565b610c63565b61014b610276366004610f29565b610c8a565b61014b610289366004610efd565b610d48565b61017060008051602061137983398151915281565b60006001600160e01b03198216637965db0b60e01b14806102d457506301ffc9a760e01b6001600160e01b03198316145b92915050565b600082815260026020526040902054829060ff166103135760405162461bcd60e51b815260040161030a906110d0565b60405180910390fd5b60008181526001602052604090206003015460ff166103445760405162461bcd60e51b815260040161030a906110ff565b6000838152600160205260409020600481015460ff16156103a05760405162461bcd60e51b8152602060048201526016602482015275426c6f636b656420627920656e63756d6272616e636560501b604482015260640161030a565b80546001600160a01b03163314806103cb57506103cb60008051602061137983398151915233610c17565b6104085760405162461bcd60e51b815260206004820152600e60248201526d139bdd08185d5d1a1bdc9a5e995960921b604482015260640161030a565b80546001600160a01b03908116908416158015906104385750806001600160a01b0316846001600160a01b031614155b6104745760405162461bcd60e51b815260206004820152600d60248201526c109859081c9958da5c1a595b9d609a1b604482015260640161030a565b81546001600160a01b038086166001600160a01b031992831681178555600785018054600181018255600091825260208220018054909416821790935560405190929184169188917fe40dec83e9465f40e097d37bf71968834b9f824adba9ddd37c2177ab17bd005c9190a45050505050565b60008281526020819052604090206001015461050281610d6d565b61050c8383610d7a565b50505050565b6001600160a01b038116331461053b5760405163334bd91960e11b815260040160405180910390fd5b6105458282610e0c565b505050565b60008051602061137983398151915261056281610d6d565b600082815260026020526040902054829060ff166105925760405162461bcd60e51b815260040161030a906110d0565b60008181526001602052604090206003015460ff166105c35760405162461bcd60e51b815260040161030a906110ff565b6000838152600160205260409020600481015460ff166106135760405162461bcd60e51b815260206004820152600b60248201526a139bdd08189b1bd8dad95960aa1b604482015260640161030a565b600681015460048201805460ff191690556040805160208101909152600081526001600160a01b0390911690600583019061064e90826111c8565b506006820180546001600160a01b03191690556040516001600160a01b0382169086907fd6d23a0b48c96cb63a9d78f6c97209629449347c947026f21feabedd7c7d8c1d90600090a35050505050565b60008181526002602052604081205481906060908290819083908290829060ff166106db5760405162461bcd60e51b815260040161030a906110d0565b600089815260016020819052604090912080549181015460038201546004830154600684015460028501805495966001600160a01b039081169695811695919460ff90811694169260058901929116906007890190869061073b9061113e565b80601f01602080910402602001604051908101604052809291908181526020018280546107679061113e565b80156107b45780601f10610789576101008083540402835291602001916107b4565b820191906000526020600020905b81548152906001019060200180831161079757829003601f168201915b505050505095508280546107c79061113e565b80601f01602080910402602001604051908101604052809291908181526020018280546107f39061113e565b80156108405780601f1061081557610100808354040283529160200191610840565b820191906000526020600020905b81548152906001019060200180831161082357829003601f168201915b505050505092508080548060200260200160405190810160405280929190818152602001828054801561089c57602002820191906000526020600020905b81546001600160a01b0316815260019091019060200180831161087e575b505050505090509850985098509850985098509850985050919395975091939597565b6000805160206113798339815191526108d781610d6d565b60008581526002602052604090205460ff16156109275760405162461bcd60e51b815260206004820152600e60248201526d416c72656164792065786973747360901b604482015260640161030a565b6001600160a01b0384166109675760405162461bcd60e51b815260206004820152600760248201526606f776e65723d360cc1b604482015260640161030a565b600085815260016020819052604090912080546001600160a01b0387166001600160a01b031991821617825591810180549092163317909155600281016109af848683611288565b50600381018054600160ff19918216811790925560078301805480840182556000918252602080832090910180546001600160a01b0319166001600160a01b038b169081179091558a8352600290915260409182902080549093169093179091555133919088907f22eaa54bc19fc9901ad355dea964ea94b73d308521ae3856ac02eaca4019b61290610a459089908990611349565b60405180910390a4505050505050565b600080516020611379833981519152610a6d81610d6d565b600085815260026020526040902054859060ff16610a9d5760405162461bcd60e51b815260040161030a906110d0565b60008181526001602052604090206003015460ff16610ace5760405162461bcd60e51b815260040161030a906110ff565b6000868152600160205260409020600481015460ff1615610b235760405162461bcd60e51b815260206004820152600f60248201526e105b1c9958591e48189b1bd8dad959608a1b604482015260640161030a565b604051806060016040528060011515815260200186868080601f0160208091040260200160405190810160405280939291908181526020018383808284376000920191909152505050908252506001600160a01b038816602091820152815160048401805460ff1916911515919091178155908201516005840190610ba890826111c8565b5060409182015160029190910180546001600160a01b0319166001600160a01b0392831617905590519087169088907fe6ba5bbeab0bc68f6ea4ea2077a1ec3ad0539c5c97d7379917ad3b4694f4017190610c069089908990611349565b60405180910390a350505050505050565b6000918252602082815260408084206001600160a01b0393909316845291905290205460ff1690565b6000610c4b81610d6d565b61054560008051602061137983398151915283610d7a565b6000610c6e81610d6d565b610c8660008051602061137983398151915283610d48565b5050565b600080516020611379833981519152610ca281610d6d565b600082815260026020526040902054829060ff16610cd25760405162461bcd60e51b815260040161030a906110d0565b60008181526001602052604090206003015460ff16610d035760405162461bcd60e51b815260040161030a906110ff565b600083815260016020526040808220600301805460ff191690555184917fa3d5ad0860f2ac1d8bbd90c5c73e37d2f9bf0ca4b7548dc1f6bc4e6f589e0e6191a2505050565b600082815260208190526040902060010154610d6381610d6d565b61050c8383610e0c565b610d778133610e77565b50565b6000610d868383610c17565b610e04576000838152602081815260408083206001600160a01b03861684529091529020805460ff19166001179055610dbc3390565b6001600160a01b0316826001600160a01b0316847f2f8788117e7eff1d82e926ec794901d17c78024a50270940304540a733656f0d60405160405180910390a45060016102d4565b5060006102d4565b6000610e188383610c17565b15610e04576000838152602081815260408083206001600160a01b0386168085529252808320805460ff1916905551339286917ff6391f5c32d9c69d2a47ea670b442974b53935d1edc7fd64eb21e047a839171b9190a45060016102d4565b610e818282610c17565b610c865760405163e2517d3f60e01b81526001600160a01b03821660048201526024810183905260440161030a565b600060208284031215610ec257600080fd5b81356001600160e01b031981168114610eda57600080fd5b9392505050565b80356001600160a01b0381168114610ef857600080fd5b919050565b60008060408385031215610f1057600080fd5b82359150610f2060208401610ee1565b90509250929050565b600060208284031215610f3b57600080fd5b5035919050565b6000815180845260005b81811015610f6857602081850181015186830182015201610f4c565b506000602082860101526020601f19601f83011685010191505092915050565b600061010060018060a01b03808c1684526020818c166020860152826040860152610fb58386018c610f42565b92508915156060860152881515608086015284830360a0860152610fd98389610f42565b87831660c087015285810360e08701528651808252602080890195509091019060005b8181101561101a578551851683529483019491830191600101610ffc565b50909e9d5050505050505050505050505050565b6000806000806060858703121561104457600080fd5b8435935061105460208601610ee1565b9250604085013567ffffffffffffffff8082111561107157600080fd5b818701915087601f83011261108557600080fd5b81358181111561109457600080fd5b8860208285010111156110a657600080fd5b95989497505060200194505050565b6000602082840312156110c757600080fd5b610eda82610ee1565b60208082526015908201527414185c98d95b08191bd95cc81b9bdd08195e1a5cdd605a1b604082015260600190565b6020808252600f908201526e50617263656c20696e61637469766560881b604082015260600190565b634e487b7160e01b600052604160045260246000fd5b600181811c9082168061115257607f821691505b60208210810361117257634e487b7160e01b600052602260045260246000fd5b50919050565b601f821115610545576000816000526020600020601f850160051c810160208610156111a15750805b601f850160051c820191505b818110156111c0578281556001016111ad565b505050505050565b815167ffffffffffffffff8111156111e2576111e2611128565b6111f6816111f0845461113e565b84611178565b602080601f83116001811461122b57600084156112135750858301515b600019600386901b1c1916600185901b1785556111c0565b600085815260208120601f198616915b8281101561125a5788860151825594840194600190910190840161123b565b50858210156112785787850151600019600388901b60f8161c191681555b5050505050600190811b01905550565b67ffffffffffffffff8311156112a0576112a0611128565b6112b4836112ae835461113e565b83611178565b6000601f8411600181146112e857600085156112d05750838201355b600019600387901b1c1916600186901b178355611342565b600083815260209020601f19861690835b8281101561131957868501358255602094850194600190920191016112f9565b50868210156113365760001960f88860031b161c19848701351681555b505060018560011b0183555b5050505050565b60208152816020820152818360408301376000818301604090810191909152601f909201601f1916010191905056feedcc084d3dcd65a1f7f23c65c46722faca6953d28e43150a467cf43e5c309238a2646970667358221220091475f8d13ad4f2909e68cb5a2d189b62232afc3924bc0e06c70c2c4d696bd864736f6c63430008180033",
  "linkReferences": {},
  "deployedLinkReferences": {}
}